:100000000C9462000C948A000C948A000C948A0070
:100010000C948A000C948A000C948A000C948A0038
:100020000C948A000C948A000C948A000C948A0028
:100030000C948A000C948A000C948A000C948A0018
:100040000C943C020C948A000C9473030C948A0068
:100050000C948A000C948A000C948A000C948A00F8
:100060000C948A000C948A000000000024002700F1
:100070002A0000000000250028002B0000000000DE
:1000800023002600290004040404040404040202DA
:100090000202020203030303030301020408102007
:1000A0004080010204081020010204081020000012
:1000B0000007000201000003040600000000000029
:1000C0000000BC0411241FBECFEFD4E0DEBFCDBFC3
:1000D00011E0A0E0B1E0E4EAF2E102C005900D9287
:1000E000A237B107D9F712E0A2E7B1E001C01D9233
:1000F000A831B107E1F710E0C4ECD0E004C02297CA
:10010000FE010E944C09C23CD107C9F70E9435028A
:100110000C9450090C9400006F927F928F929F92E2
:10012000AF92BF92CF92DF92EF92FF920F931F9305
:10013000CF93DF938C01FC01EE0FFF1FE55AFE4FBA
:10014000808161E00E942603C801019663E070E0AF
:100150000E94E608FC01EE0FFF1FE55AFE4F80816A
:1001600060E00E942603C801029663E070E00E94EE
:10017000E608FC01EE0FFF1FE55AFE4F808160E0AC
:100180000E94260368EE73E080E090E00E94840203
:100190006624772400E010E0812C84E0982EEE2481
:1001A000FF241BC080E00E94E802EC01881599053D
:1001B0000CF44C01EC16FD060CF47E01609161011B
:1001C00070916201882777FD8095982F0E948402A4
:1001D0000C0F1D1F0894611C711CA0906301B0904E
:1001E0006401C0906501D0906601B301882777FD56
:1001F0008095982F0E94B407A60195010E941507CB
:1002000087FDD0CF081919090E191F09B8018827D1
:1002100077FD8095982F0E94B4077B018C01C60161
:10022000B50120E030E040E050E40E94B0069B01C0
:10023000AC01C801B7010E9419070E948107CB01D8
:10024000DF91CF911F910F91FF90EF90DF90CF90B2
:10025000BF90AF909F908F907F906F900895AF92D6
:10026000BF92CF92DF92EF92FF920F931F938C0178
:100270000E948C00000F111FF801EB5AFE4FA08066
:10028000B180AA2797FDA095BA2FBC01CD010E948D
:10029000B4076B017C01B501882777FD8095982F05
:1002A0000E94B4079B01AC01C701B6010E94B006D1
:1002B0006B017C010E581E4FF801608171816A1933
:1002C0007B09882777FD8095982F0E94B4079B01B2
:1002D000AC01C701B6010E9419079B01AC0160E0A7
:1002E00070E080E89FE30E94B00620E030E04FE736
:1002F00053E40E9464081F910F91FF90EF90DF90EC
:10030000CF90BF90AF900895CF92DF92EF92FF927F
:100310000F931F9305E012E060E0C62E61E0D62E39
:10032000C801B6010E944C05C80167E171E00E9456
:100330004C0568E873E180E090E00E94840280E070
:1003400090E00E948C00909356018093550181E0CB
:1003500090E00E948C00909358018093570182E0B6
:1003600090E00E948C0090935A01809359015CE2C6
:10037000E52E51E0F52EC801B7010E944C05C801D9
:10038000B6010E944C05C80160E371E00E944C0573
:1003900068E873E180E090E00E94840280E090E0F1
:1003A0000E948C00909373018093720181E090E031
:1003B0000E948C00909375018093740182E090E01C
:1003C0000E948C009093770180937601C801B70159
:1003D0000E944C051F910F91FF90EF90DF90CF90FE
:1003E0000895CF93DF93C0E0D0E0CE010E942F01AB
:1003F000AB01BC0185E092E00E94A5062196C330C6
:10040000D10599F785E092E064E471E00E944C0523
:1004100068EB7BE080E090E00E948402DF91CF9166
:10042000089580E060E00E94060380915B0161E036
:100430000E94060380915D0161E00E9406038091A5
:100440005F0161E00E94060385E092E040E855E22A
:1004500060E070E00E94B00368EE73E080E090E03E
:100460000E9484020E94840108950E94AE020E94AC
:1004700011020E94F101FDCF1F920F920FB60F9251
:1004800011242F933F938F939F93AF93BF938091AA
:100490007C0190917D01A0917E01B0917F0130910E
:1004A00080010196A11DB11D232F2D5F2D3720F056
:1004B0002D570196A11DB11D2093800180937C01D1
:1004C00090937D01A0937E01B0937F01809178018C
:1004D00090917901A0917A01B0917B010196A11DC3
:1004E000B11D8093780190937901A0937A01B09324
:1004F0007B01BF91AF919F918F913F912F910F9071
:100500000FBE0F901F901895EF92FF920F931F93BD
:100510007B018C018FB7F89440917C0150917D0153
:1005200060917E0170917F018FBF2FB7F894809109
:100530007C0190917D01A0917E01B0917F012FBF40
:10054000841B950BA60BB70BE816F9060A071B07C9
:1005500060F71F910F91FF90EF900895789484B504
:10056000826084BD84B5816084BD85B5826085BDAF
:1005700085B5816085BDEEE6F0E080818160808395
:10058000E1E8F0E080818260808380818160808307
:10059000E0E8F0E0808181608083E1EBF0E0808141
:1005A00084608083E0EBF0E0808181608083EAE713
:1005B000F0E080818460808380818260808380819C
:1005C000816080838081806880831092C10008955B
:1005D0008F70909167019295990F990F907C982B4D
:1005E00090937C0080917A00806480937A0080915F
:1005F0007A0086FDFCCF2091780040917900942FFD
:1006000080E030E0282B392BC9010895282F30E0F5
:10061000C90186569F4FFC0194912A573F4FF9011B
:100620008491882391F0E82FF0E0EE0FFF1FE85946
:10063000FF4FA591B491662329F48C91909589235D
:100640008C9308958C91892B8C930895482F50E0BA
:10065000CA0182559F4FFC012491CA0186569F4FC3
:10066000FC0194914A575F4FFA0134913323D1F141
:10067000222331F1233021F4809180008F7705C04F
:10068000243031F4809180008F7D8093800018C0E9
:10069000213019F484B58F7704C0223021F484B559
:1006A0008F7D84BD0DC0263021F48091B0008F77FE
:1006B00005C0273029F48091B0008F7D8093B00071
:1006C000E32FF0E0EE0FFF1FEE58FF4FA591B4911E
:1006D000662329F48C91909589238C9308958C91AD
:1006E000892B8C9308951F920F920FB60F921124AD
:1006F0002F933F934F935F936F937F938F939F932A
:10070000AF93BF93EF93FF934091C600E091010236
:10071000F0910202CF01019660E870E00E94E608C5
:100720009C0180910302909104022817390739F047
:10073000EF57FE4F40833093020220930102FF9156
:10074000EF91BF91AF919F918F917F916F915F9149
:100750004F913F912F910F900FBE0F901F901895C2
:100760005F926F927F928F929F92AF92BF92CF9241
:10077000DF92EF92FF920F931F93CF93DF93EC01E1
:100780003A014B01413482E458078FE0680780E06A
:1007900078070CF07FC060E874E88EE190E0A40177
:1007A00093010E941B092150304040405040CA0133
:1007B000B90122E030E040E050E00E941B095901FD
:1007C0006A01A6019501209530954095509594E0D9
:1007D000220F331F441F551F9A95D1F760E074E232
:1007E00084EF90E00E941B09CA01B9012FEF30E0AD
:1007F00040E050E00E94C708A40193010E941B0939
:10080000C90181509F4F181619061CF4522E5A9494
:1008100003C055245394521A60E079E08DE390E0D0
:10082000A40193010E941B092150304040405040D8
:10083000CA01B90122E030E040E050E00E941B090B
:10084000209530954095509583E0220F331F441F2B
:10085000551F8A95D1F760E074E284EF90E00E9422
:100860001B09CA01B9012FEF30E040E050E00E94BF
:10087000C708A40193010E941B09C90181509F4F21
:10088000181619061CF4822F815002C081E0821BC9
:10089000851500F5E885F98581E090E00A8802C0B9
:1008A000880F991F0A94E2F7808360E079E08DE376
:1008B00090E0A40193010E941B0921503040404068
:1008C0005040CA01B90122E030E040E050E00E940F
:1008D0001B0904C0E885F98510829501EC81FD8132
:1008E0003083EE81FF812083EA85FB85208141E012
:1008F00050E0CA010E8402C0880F991F0A94E2F7E3
:10090000282B2083EA85FB852081CA010F8402C041
:10091000880F991F0A94E2F7282B2083EA85FB852C
:100920008081088802C0440F551F0A94E2F7842B87
:100930008083DF91CF911F910F91FF90EF90DF9017
:10094000CF90BF90AF909F908F907F906F905F906F
:100950000895FC01A085B18521898C9190E0022E3B
:1009600002C0959587950A94E2F780FFF6CF04843C
:10097000F585E02D608308958CE691E09093060262
:100980008093050281E891E090930802809307022A
:1009900085EC90E090930A028093090284EC90E049
:1009A00090930C0280930B0280EC90E090930E02E7
:1009B00080930D0281EC90E09093100280930F02DF
:1009C00086EC90E0909312028093110284E0809371
:1009D000130283E08093140287E08093150285E080
:1009E0008093160281E08093170208950F931F935E
:1009F000CF93DF938C01EB0109C02196D801ED91D3
:100A0000FC910190F081E02DC80109956881662371
:100A1000A1F7DF91CF911F910F910895EF92FF926F
:100A20000F931F93CF93DF938C017B01EA010CC0DE
:100A3000D7016D917D01D801ED91FC910190F0817C
:100A4000E02DC80109952197209791F7DF91CF916B
:100A50001F910F91FF90EF900895DC01ED91FC91B3
:100A60000280F381E02D099508950F931F938C0167
:100A7000DC01ED91FC910190F081E02D6DE0099594
:100A8000D801ED91FC910190F081E02DC8016AE060
:100A900009951F910F9108950F931F938C010E9448
:100AA0002D05C8010E9435051F910F9108952F92C1
:100AB0003F924F925F926F927F928F929F92AF92EE
:100AC000BF92CF92DF92EF92FF920F931F93DF932B
:100AD000CF93CDB7DEB7A0970FB6F894DEBF0FBEA9
:100AE000CDBF1C016A017B014115510561057105EE
:100AF00049F4DC01ED91FC910190F081E02D60E37F
:100B0000099554C0882499245401422E5524662402
:100B1000772401E010E00C0F1D1F080D191DC701FF
:100B2000B601A30192010E94F908F80160830894BC
:100B3000811C911CA11CB11CC701B601A30192012B
:100B40000E94F908C901DA016C017D01C114D104C8
:100B5000E104F104F1F681E0E82EF12CEC0EFD1E2B
:100B6000E80CF91C3E010894611C711CD501C401FC
:100B70000197A109B1096C01C818D90814C0F60180
:100B8000EE0DFF1D60816A3010F4605D01C0695C8C
:100B9000D101ED91FC910190F081E02DC101099509
:100BA0000894E108F1086E147F0449F7A0960FB687
:100BB000F894DEBF0FBECDBFCF91DF911F910F9193
:100BC000FF90EF90DF90CF90BF90AF909F908F906D
:100BD0007F906F905F904F903F902F9008952AE004
:100BE0000E9457050895EF92FF920F931F93CF93A2
:100BF000DF93EC017A018B0177FF0FC0E881F98167
:100C00000190F081E02D6DE2099510950095F0942A
:100C1000E094E11CF11C011D111DCE01B801A701DA
:100C20002AE00E945705DF91CF911F910F91FF900D
:100C3000EF9008959F92AF92BF92CF92DF92EF9282
:100C4000FF920F931F93CF93DF93EC017A018B01F7
:100C5000922ECB01BA0120E030E040E050E00E944B
:100C60001507882364F4E881F9810190F081E02D73
:100C7000CE016DE2099517FB109517F9109520E04C
:100C800030E040E05FE3AA240BC0CA01B90120E0D4
:100C900030E040E251E40E9419079B01AC01A394AB
:100CA000A91498F3C801B7010E94B1065B016C0159
:100CB0000E9486077B018C01CE01B801A7010E942A
:100CC000EF05992029F0CE0163E571E00E942D0522
:100CD000C801B7010E94B2079B01AC01C601B50172
:100CE0000E94B00620C020E030E040E251E40E94C3
:100CF00064087B018C010E9481075B016C01CC249C
:100D0000B7FCC094DC2CCE01B601A5010E94F3050E
:100D1000C601B5010E94B4079B01AC01C801B7012F
:100D20000E94B0069A949920F1F6DF91CF911F911D
:100D30000F91FF90EF90DF90CF90BF90AF909F907A
:100D4000089522E00E941A0608950F931F938C01C4
:100D50000E94A106C8010E9435051F910F910895B8
:100D60005058BB27AA270ED075C166D130F06BD181
:100D700020F031F49F3F11F41EF45BC10EF4E095B6
:100D8000E7FB51C1E92F77D180F3BA1762077307E8
:100D90008407950718F071F49EF58FC10EF4E09565
:100DA0000B2EBA2FA02D0B01B90190010C01CA0125
:100DB000A0011124FF27591B99F0593F50F4503ED0
:100DC00068F11A16F040A22F232F342F4427585FC2
:100DD000F3CF469537952795A795F0405395C9F7DA
:100DE0007EF41F16BA0B620B730B840BBAF0915092
:100DF000A1F0FF0FBB1F661F771F881FC2F70EC031
:100E0000BA0F621F731F841F48F487957795679503
:100E1000B795F7959E3F08F0B3CF9395880F08F0EC
:100E20009927EE0F979587950895D9D008F481E01A
:100E300008950CD00FC107D140F0FED030F021F45E
:100E40005F3F19F0F0C0511139C1F3C014D198F3CC
:100E50009923C9F35523B1F3951B550BBB27AA273B
:100E600062177307840738F09F5F5F4F220F331FAD
:100E7000441FAA1FA9F333D00E2E3AF0E0E830D079
:100E800091505040E695001CCAF729D0FE2F27D07C
:100E9000660F771F881FBB1F261737074807AB074A
:100EA000B0E809F0BB0B802DBF01FF2793585F4FBF
:100EB0002AF09E3F510568F0B6C000C15F3FECF3D9
:100EC000983EDCF3869577956795B795F7959F5F84
:100ED000C9F7880F911D9695879597F90895E1E0D8
:100EE000660F771F881FBB1F621773078407BA0737
:100EF00020F0621B730B840BBA0BEE1F88F7E09592
:100F0000089504D06894B111D9C00895BCD088F078
:100F10009F5790F0B92F9927B751A0F0D1F0660FE5
:100F2000771F881F991F1AF0BA95C9F712C0B13000
:100F300081F0C3D0B1E00895C0C0672F782F882713
:100F4000B85F39F0B93FCCF3869577956795B3953F
:100F5000D9F73EF490958095709561957F4F8F4FAE
:100F60009F4F0895E89409C097FB3EF490958095B3
:100F7000709561957F4F8F4F9F4F9923A9F0F92F5F
:100F800096E9BB279395F695879577956795B795DD
:100F9000F111F8CFFAF4BB0F11F460FF1BC06F5FC3
:100FA0007F4F8F4F9F4F16C0882311F096E911C0D5
:100FB000772321F09EE8872F762F05C0662371F0F6
:100FC00096E8862F70E060E02AF09A95660F771F0A
:100FD000881FDAF7880F9695879597F90895990FE6
:100FE0000008550FAA0BE0E8FEEF16161706E807F3
:100FF000F907C0F012161306E407F50798F0621B14
:10100000730B840B950B39F40A2661F0232B242BE8
:10101000252B21F408950A2609F4A140A6958FEF07
:10102000811D811D089597F99F6780E870E060E059
:1010300008959FEF80EC089500240A941616170671
:1010400018060906089500240A94121613061406B9
:1010500005060895092E0394000C11F4882352F01C
:10106000BB0F40F4BF2B11F460FF04C06F5F7F4FD4
:101070008F4F9F4F089557FD9058440F551F59F0BB
:101080005F3F71F04795880F97FB991F61F09F3F75
:1010900079F087950895121613061406551FF2CF9E
:1010A0004695F1DF08C0161617061806991FF1CFEE
:1010B00086957105610508940895E894BB27662715
:1010C0007727CB0197F908950BD0C4CFB5DF28F06F
:1010D000BADF18F0952309F0A6CFABCF1124EECFDD
:1010E000CADFA0F3959FD1F3950F50E0551F629F83
:1010F000F001729FBB27F00DB11D639FAA27F00D71
:10110000B11DAA1F649F6627B00DA11D661F829F97
:101110002227B00DA11D621F739FB00DA11D621F7C
:10112000839FA00D611D221F749F3327A00D611D99
:10113000231F849F600D211D822F762F6A2F11247B
:101140009F5750408AF0E1F088234AF0EE0FFF1FCE
:10115000BB1F661F771F881F91505040A9F79E3F05
:10116000510570F060CFAACF5F3FECF3983EDCF3FF
:10117000869577956795B795F795E7959F5FC1F742
:10118000FE2B880F911D9695879597F90895629F7C
:10119000D001739FF001829FE00DF11D649FE00D6F
:1011A000F11D929FF00D839FF00D749FF00D659FD0
:1011B000F00D9927729FB00DE11DF91F639FB00DCF
:1011C000E11DF91FBD01CF011124089597FB092EE0
:1011D00007260AD077FD04D049D006D000201AF4A3
:1011E000709561957F4F0895F6F7909581959F4F83
:1011F0000895A1E21A2EAA1BBB1BFD010DC0AA1F58
:10120000BB1FEE1FFF1FA217B307E407F50720F06F
:10121000A21BB30BE40BF50B661F771F881F991FEA
:101220001A9469F760957095809590959B01AC0133
:10123000BD01CF01089597FB092E05260ED057FD5D
:1012400004D0D7DF0AD0001C38F450954095309573
:1012500021953F4F4F4F5F4F0895F6F7909580953A
:10126000709561957F4F8F4F9F4F0895AA1BBB1BB1
:1012700051E107C0AA1FBB1FA617B70710F0A61B96
:10128000B70B881F991F5A95A9F780959095BC01B7
:10129000CD010895EE0FFF1F0590F491E02D099404
:0412A000F894FFCFF0
:1012A4002D2D2D2D2D2D2D2D2D2D2D2D2D2D2D2D6A
:1012B4002D2D2D2D2D2D00494E53495241205041A5
:1012C40050454C204252414E434F21004F4B210088
:1012D400494E5349524120504150454C20505245AB
:1012E400544F21002D2D2D2D2D2D2D2D2D2D2D2D1A
:1012F4002D2D002E00E803E803E803020003000498
:101304000064000000A0400100000000A904F604ED
:021314000E05C4
:00000001FF
