:100000000C9462000C948A000C948A000C948A0070
:100010000C948A000C948A000C948A000C948A0038
:100020000C948A000C948A000C948A000C948A0028
:100030000C948A000C948A000C948A000C948A0018
:100040000C94F9000C948A000C94E3010C948A003F
:100050000C948A000C948A000C948A000C948A00F8
:100060000C948A000C948A000000000024002700F1
:100070002A0000000000250028002B0000000000DE
:1000800023002600290004040404040404040202DA
:100090000202020203030303030301020408102007
:1000A0004080010204081020010204081020000012
:1000B0000007000201000003040600000000000029
:1000C00000002C0311241FBECFEFD4E0DEBFCDBF54
:1000D00011E0A0E0B1E0E2E4FAE002C005900D9288
:1000E000A833B107D9F711E0A8E3B1E001C01D9230
:1000F000AC3DB107E1F710E0C4ECD0E004C02297BA
:10010000FE010E941B05C23CD107C9F70E94F20004
:100110000C941F050C940000CF93DF9380E00E94A5
:10012000A501EC0180913A0190913B01C817D907D4
:100130007CF4D0933B01C0933A0189EC91E060E0FC
:1001400071E00E94BC0360913A0170913B0115C0BF
:1001500080913801909139018C179D0794F4D093C8
:100160003901C093380189EC91E066E071E00E94AA
:10017000BC03609138017091390189EC91E00E94D3
:10018000860489EC91E06CE071E00E94BC0389EC8C
:1001900091E063E271E00E94BC0389EC91E0BE0152
:1001A0000E94860464E670E080E090E00E944101D5
:1001B000DF91CF910895109239011092380186ECA9
:1001C00091E190933B0180933A0181E060E00E94CD
:1001D000C30189EC91E040E855E260E070E00E94E4
:1001E000200208950E946B010E94DB000E948C0097
:1001F000FDCF1F920F920FB60F9211242F933F93B2
:100200008F939F93AF93BF93809140019091410151
:10021000A0914201B0914301309144010196A11D8A
:10022000B11D232F2D5F2D3720F02D570196A11DD5
:10023000B11D209344018093400190934101A0930C
:100240004201B093430180913C0190913D01A09106
:100250003E01B0913F010196A11DB11D80933C016B
:1002600090933D01A0933E01B0933F01BF91AF91A8
:100270009F918F913F912F910F900FBE0F901F90E4
:100280001895EF92FF920F931F937B018C018FB70C
:10029000F894409140015091410160914201709168
:1002A00043018FBF2FB7F894809140019091410195
:1002B000A0914201B09143012FBF841B950BA60B67
:1002C000B70BE816F9060A071B0760F71F910F9195
:1002D000FF90EF900895789484B5826084BD84B5D2
:1002E000816084BD85B5826085BD85B5816085BD31
:1002F000EEE6F0E0808181608083E1E8F0E08081DB
:1003000082608083808181608083E0E8F0E080818A
:1003100081608083E1EBF0E0808184608083E0EBAA
:10032000F0E0808181608083EAE7F0E08081846092
:1003300080838081826080838081816080838081EE
:10034000806880831092C10008958F7090912C0175
:100350009295990F990F907C982B90937C008091A7
:100360007A00806480937A0080917A0086FDFCCFC9
:100370002091780040917900942F80E030E0282B84
:10038000392BC9010895282F30E0C90186569F4FA7
:10039000FC0194912A573F4FF9018491882391F0F1
:1003A000E82FF0E0EE0FFF1FE859FF4FA591B49141
:1003B000662329F48C91909589238C9308958C91D0
:1003C000892B8C9308951F920F920FB60F921124D0
:1003D0002F933F934F935F936F937F938F939F934D
:1003E000AF93BF93EF93FF934091C600E091C50197
:1003F000F091C601CF01019660E870E00E94B5045B
:100400009C018091C7019091C8012817390739F0E4
:10041000EB5BFE4F40833093C6012093C501FF91F3
:10042000EF91BF91AF919F918F917F916F915F916C
:100430004F913F912F910F900FBE0F901F901895E5
:100440005F926F927F928F929F92AF92BF92CF9264
:10045000DF92EF92FF920F931F93CF93DF93EC0104
:100460003A014B01413482E458078FE0680780E08D
:1004700078070CF07FC060E874E88EE190E0A4019A
:1004800093010E94EA042150304040405040CA018C
:10049000B90122E030E040E050E00E94EA04590156
:1004A0006A01A6019501209530954095509594E0FC
:1004B000220F331F441F551F9A95D1F760E074E255
:1004C00084EF90E00E94EA04CA01B9012FEF30E006
:1004D00040E050E00E949604A40193010E94EA04C7
:1004E000C90181509F4F181619061CF4522E5A94B8
:1004F00003C055245394521A60E079E08DE390E0F4
:10050000A40193010E94EA04215030404040504031
:10051000CA01B90122E030E040E050E00E94EA0464
:10052000209530954095509583E0220F331F441F4E
:10053000551F8A95D1F760E074E284EF90E00E9445
:10054000EA04CA01B9012FEF30E040E050E00E9418
:100550009604A40193010E94EA04C90181509F4FAF
:10056000181619061CF4822F815002C081E0821BEC
:10057000851500F5E885F98581E090E00A8802C0DC
:10058000880F991F0A94E2F7808360E079E08DE399
:1005900090E0A40193010E94EA04215030404040C1
:1005A0005040CA01B90122E030E040E050E00E9432
:1005B000EA0404C0E885F98510829501EC81FD818B
:1005C0003083EE81FF812083EA85FB85208141E035
:1005D00050E0CA010E8402C0880F991F0A94E2F706
:1005E000282B2083EA85FB852081CA010F8402C065
:1005F000880F991F0A94E2F7282B2083EA85FB8550
:100600008081088802C0440F551F0A94E2F7842BAA
:100610008083DF91CF911F910F91FF90EF90DF903A
:10062000CF90BF90AF909F908F907F906F905F9092
:100630000895FC01A085B18521898C9190E0022E5E
:1006400002C0959587950A94E2F780FFF6CF04845F
:10065000F585E02D6083089581E391E09093CA01D0
:100660008093C90185E491E09093CC018093CB0104
:1006700085EC90E09093CE018093CD0184EC90E0E6
:100680009093D0018093CF0180EC90E09093D201C1
:100690008093D10181EC90E09093D4018093D301B9
:1006A00086EC90E09093D6018093D50184E080930E
:1006B000D70183E08093D80187E08093D90185E05A
:1006C0008093DA0181E08093DB0108950F931F93FB
:1006D000CF93DF938C01EB0109C02196D801ED91F6
:1006E000FC910190F081E02DC80109956881662395
:1006F000A1F7DF91CF911F910F910895EF92FF9293
:100700000F931F93CF93DF938C017B01EA010CC001
:10071000D7016D917D01D801ED91FC910190F0819F
:10072000E02DC80109952197209791F7DF91CF918E
:100730001F910F91FF90EF900895DC01ED91FC91D6
:100740000280F381E02D099508950F931F938C018A
:10075000DC01ED91FC910190F081E02D6DE00995B7
:10076000D801ED91FC910190F081E02DC8016AE083
:1007700009951F910F9108950F931F938C010E946B
:100780009D03C8010E94A5031F910F9108952F9208
:100790003F924F925F926F927F928F929F92AF9211
:1007A000BF92CF92DF92EF92FF920F931F93DF934E
:1007B000CF93CDB7DEB7A0970FB6F894DEBF0FBECC
:1007C000CDBF1C016A017B01411551056105710511
:1007D00049F4DC01ED91FC910190F081E02D60E3A2
:1007E000099554C0882499245401422E5524662426
:1007F000772401E010E00C0F1D1F080D191DC70123
:10080000B601A30192010E94C804F8016083089414
:10081000811C911CA11CB11CC701B601A30192014E
:100820000E94C804C901DA016C017D01C114D10420
:10083000E104F104F1F681E0E82EF12CEC0EFD1E4E
:10084000E80CF91C3E010894611C711CD501C4011F
:100850000197A109B1096C01C818D90814C0F601A3
:10086000EE0DFF1D60816A3010F4605D01C0695CAF
:10087000D101ED91FC910190F081E02DC10109952C
:100880000894E108F1086E147F0449F7A0960FB6AA
:10089000F894DEBF0FBECDBFCF91DF911F910F91B6
:1008A000FF90EF90DF90CF90BF90AF909F908F9090
:1008B0007F906F905F904F903F902F900895EF92B0
:1008C000FF920F931F93CF93DF93EC017A018B017B
:1008D00077FF0FC0E881F9810190F081E02D6DE292
:1008E000099510950095F094E094E11CF11C011D10
:1008F000111DCE01B801A7012AE00E94C703DF91B4
:10090000CF911F910F91FF90EF9008950F931F9338
:100910008C01AB01662757FD6095762F0E945F041E
:10092000C8010E94A5031F910F910895629FD001F5
:10093000739FF001829FE00DF11D649FE00DF11D9A
:10094000929FF00D839FF00D749FF00D659FF00D49
:100950009927729FB00DE11DF91F639FB00DE11D36
:10096000F91FBD01CF011124089597FB092E072619
:100970000AD077FD04D049D006D000201AF4709533
:1009800061957F4F0895F6F7909581959F4F089553
:10099000A1E21A2EAA1BBB1BFD010DC0AA1FBB1F83
:1009A000EE1FFF1FA217B307E407F50720F0A21BF5
:1009B000B30BE40BF50B661F771F881F991F1A9462
:1009C00069F760957095809590959B01AC01BD018C
:1009D000CF01089597FB092E05260ED057FD04D0B0
:1009E000D7DF0AD0001C38F45095409530952195FA
:1009F0003F4F4F4F5F4F0895F6F790958095709554
:100A000061957F4F8F4F9F4F0895AA1BBB1B51E1EC
:100A100007C0AA1FBB1FA617B70710F0A61BB70B6E
:100A2000881F991F5A95A9F780959095BC01CD0113
:100A30000895EE0FFF1F0590F491E02D0994F894AE
:020A4000FFCFE6
:100A42004D494E3A20004D41583A20002D2D2D2D72
:100A52002D2D2D2D2D2D2D2D2D2D2D2D2D2D2D2DC4
:100A62002D2D0053454E534F523A200001000000F5
:080A720000190366037E030076
:00000001FF
